{
  "_format": "hh-sol-artifact-1",
  "contractName": "ArcaneCharacterMintingStation",
  "sourceName": "src/ArcaneCharacterMintingStation.sol",
  "abi": [
    {
      "inputs": [
        {
          "internalType": "contract ArcaneCharacters",
          "name": "_arcaneCharacters",
          "type": "address"
        }
      ],
      "stateMutability": "nonpayable",
      "type": "constructor"
    },
    {
      "anonymous": false,
      "inputs": [
        {
          "indexed": true,
          "internalType": "bytes32",
          "name": "role",
          "type": "bytes32"
        },
        {
          "indexed": true,
          "internalType": "bytes32",
          "name": "previousAdminRole",
          "type": "bytes32"
        },
        {
          "indexed": true,
          "internalType": "bytes32",
          "name": "newAdminRole",
          "type": "bytes32"
        }
      ],
      "name": "RoleAdminChanged",
      "type": "event"
    },
    {
      "anonymous": false,
      "inputs": [
        {
          "indexed": true,
          "internalType": "bytes32",
          "name": "role",
          "type": "bytes32"
        },
        {
          "indexed": true,
          "internalType": "address",
          "name": "account",
          "type": "address"
        },
        {
          "indexed": true,
          "internalType": "address",
          "name": "sender",
          "type": "address"
        }
      ],
      "name": "RoleGranted",
      "type": "event"
    },
    {
      "anonymous": false,
      "inputs": [
        {
          "indexed": true,
          "internalType": "bytes32",
          "name": "role",
          "type": "bytes32"
        },
        {
          "indexed": true,
          "internalType": "address",
          "name": "account",
          "type": "address"
        },
        {
          "indexed": true,
          "internalType": "address",
          "name": "sender",
          "type": "address"
        }
      ],
      "name": "RoleRevoked",
      "type": "event"
    },
    {
      "inputs": [],
      "name": "DEFAULT_ADMIN_ROLE",
      "outputs": [
        {
          "internalType": "bytes32",
          "name": "",
          "type": "bytes32"
        }
      ],
      "stateMutability": "view",
      "type": "function"
    },
    {
      "inputs": [],
      "name": "MINTER_ROLE",
      "outputs": [
        {
          "internalType": "bytes32",
          "name": "",
          "type": "bytes32"
        }
      ],
      "stateMutability": "view",
      "type": "function"
    },
    {
      "inputs": [],
      "name": "arcaneCharacters",
      "outputs": [
        {
          "internalType": "contract ArcaneCharacters",
          "name": "",
          "type": "address"
        }
      ],
      "stateMutability": "view",
      "type": "function"
    },
    {
      "inputs": [
        {
          "internalType": "address",
          "name": "_newOwner",
          "type": "address"
        }
      ],
      "name": "changeOwnershipNFTContract",
      "outputs": [],
      "stateMutability": "nonpayable",
      "type": "function"
    },
    {
      "inputs": [
        {
          "internalType": "bytes32",
          "name": "role",
          "type": "bytes32"
        }
      ],
      "name": "getRoleAdmin",
      "outputs": [
        {
          "internalType": "bytes32",
          "name": "",
          "type": "bytes32"
        }
      ],
      "stateMutability": "view",
      "type": "function"
    },
    {
      "inputs": [
        {
          "internalType": "bytes32",
          "name": "role",
          "type": "bytes32"
        },
        {
          "internalType": "uint256",
          "name": "index",
          "type": "uint256"
        }
      ],
      "name": "getRoleMember",
      "outputs": [
        {
          "internalType": "address",
          "name": "",
          "type": "address"
        }
      ],
      "stateMutability": "view",
      "type": "function"
    },
    {
      "inputs": [
        {
          "internalType": "bytes32",
          "name": "role",
          "type": "bytes32"
        }
      ],
      "name": "getRoleMemberCount",
      "outputs": [
        {
          "internalType": "uint256",
          "name": "",
          "type": "uint256"
        }
      ],
      "stateMutability": "view",
      "type": "function"
    },
    {
      "inputs": [
        {
          "internalType": "bytes32",
          "name": "role",
          "type": "bytes32"
        },
        {
          "internalType": "address",
          "name": "account",
          "type": "address"
        }
      ],
      "name": "grantRole",
      "outputs": [],
      "stateMutability": "nonpayable",
      "type": "function"
    },
    {
      "inputs": [
        {
          "internalType": "bytes32",
          "name": "role",
          "type": "bytes32"
        },
        {
          "internalType": "address",
          "name": "account",
          "type": "address"
        }
      ],
      "name": "hasRole",
      "outputs": [
        {
          "internalType": "bool",
          "name": "",
          "type": "bool"
        }
      ],
      "stateMutability": "view",
      "type": "function"
    },
    {
      "inputs": [
        {
          "internalType": "address",
          "name": "_tokenReceiver",
          "type": "address"
        },
        {
          "internalType": "string",
          "name": "_tokenURI",
          "type": "string"
        },
        {
          "internalType": "uint8",
          "name": "_characterId",
          "type": "uint8"
        }
      ],
      "name": "mintCollectible",
      "outputs": [
        {
          "internalType": "uint256",
          "name": "",
          "type": "uint256"
        }
      ],
      "stateMutability": "nonpayable",
      "type": "function"
    },
    {
      "inputs": [
        {
          "internalType": "bytes32",
          "name": "role",
          "type": "bytes32"
        },
        {
          "internalType": "address",
          "name": "account",
          "type": "address"
        }
      ],
      "name": "renounceRole",
      "outputs": [],
      "stateMutability": "nonpayable",
      "type": "function"
    },
    {
      "inputs": [
        {
          "internalType": "bytes32",
          "name": "role",
          "type": "bytes32"
        },
        {
          "internalType": "address",
          "name": "account",
          "type": "address"
        }
      ],
      "name": "revokeRole",
      "outputs": [],
      "stateMutability": "nonpayable",
      "type": "function"
    },
    {
      "inputs": [
        {
          "internalType": "uint8",
          "name": "_characterId",
          "type": "uint8"
        },
        {
          "internalType": "string",
          "name": "_characterName",
          "type": "string"
        }
      ],
      "name": "setCharacterName",
      "outputs": [],
      "stateMutability": "nonpayable",
      "type": "function"
    }
  ],
  "bytecode": "0x60806040523480156200001157600080fd5b5060405162000dc338038062000dc3833981810160405260208110156200003757600080fd5b5051600180546001600160a01b0319166001600160a01b0383161790556200006a60006200006462000071565b62000075565b5062000185565b3390565b62000081828262000085565b5050565b600082815260208181526040909120620000aa9183906200088c620000fe821b17901c565b156200008157620000ba62000071565b6001600160a01b0316816001600160a01b0316837f2f8788117e7eff1d82e926ec794901d17c78024a50270940304540a733656f0d60405160405180910390a45050565b600062000115836001600160a01b0384166200011e565b90505b92915050565b60006200012c83836200016d565b620001645750815460018181018455600084815260208082209093018490558454848252828601909352604090209190915562000118565b50600062000118565b60009081526001919091016020526040902054151590565b610c2e80620001956000396000f3fe608060405234801561001057600080fd5b50600436106100df5760003560e01c806391d148541161008c578063ca15c87311610066578063ca15c87314610317578063cc2b7b8e14610334578063d53913931461033c578063d547741f14610344576100df565b806391d1485414610255578063a1beb37414610295578063a217fddf1461030f576100df565b806336568abe116100bd57806336568abe146101c45780637c439326146101f05780639010d07c14610216576100df565b80630f85cb5a146100e4578063248a9ca3146101795780632f2ff15d14610196575b600080fd5b610167600480360360608110156100fa57600080fd5b6001600160a01b03823516919081019060408101602082013564010000000081111561012557600080fd5b82018360208201111561013757600080fd5b8035906020019184600183028401116401000000008311171561015957600080fd5b91935091503560ff16610370565b60408051918252519081900360200190f35b6101676004803603602081101561018f57600080fd5b50356104d6565b6101c2600480360360408110156101ac57600080fd5b50803590602001356001600160a01b03166104eb565b005b6101c2600480360360408110156101da57600080fd5b50803590602001356001600160a01b0316610552565b6101c26004803603602081101561020657600080fd5b50356001600160a01b03166105b3565b6102396004803603604081101561022c57600080fd5b5080359060200135610693565b604080516001600160a01b039092168252519081900360200190f35b6102816004803603604081101561026b57600080fd5b50803590602001356001600160a01b03166106b4565b604080519115158252519081900360200190f35b6101c2600480360360408110156102ab57600080fd5b60ff82351691908101906040810160208201356401000000008111156102d057600080fd5b8201836020820111156102e257600080fd5b8035906020019184600183028401116401000000008311171561030457600080fd5b5090925090506106cc565b6101676107e4565b6101676004803603602081101561032d57600080fd5b50356107e9565b610239610800565b61016761080f565b6101c26004803603604081101561035a57600080fd5b50803590602001356001600160a01b0316610833565b60006103a37f9f2df0fed2c77648de5860a4cc508cd0818c85b8b8a1ab4ceeef8d981c8956a661039e6108a1565b6106b4565b6103f4576040805162461bcd60e51b815260206004820152601260248201527f4e6f742061206d696e74696e6720726f6c650000000000000000000000000000604482015290519081900360640190fd5b6001546040517f6a4b88830000000000000000000000000000000000000000000000000000000081526001600160a01b038781166004830190815260ff86166044840152606060248401908152606484018890526000949290921692636a4b8883928a928a928a928a9291608401858580828437600081840152601f19601f82011690508083019250505095505050505050602060405180830381600087803b1580156104a057600080fd5b505af11580156104b4573d6000803e3d6000fd5b505050506040513d60208110156104ca57600080fd5b50519695505050505050565b60009081526020819052604090206002015490565b6000828152602081905260409020600201546105099061039e6108a1565b6105445760405162461bcd60e51b815260040180806020018281038252602f815260200180610b6b602f913960400191505060405180910390fd5b61054e82826108a5565b5050565b61055a6108a1565b6001600160a01b0316816001600160a01b0316146105a95760405162461bcd60e51b815260040180806020018281038252602f815260200180610bca602f913960400191505060405180910390fd5b61054e828261090e565b6105c0600061039e6108a1565b610611576040805162461bcd60e51b815260206004820152601160248201527f4e6f7420616e2061646d696e20726f6c65000000000000000000000000000000604482015290519081900360640190fd5b600154604080517ff2fde38b0000000000000000000000000000000000000000000000000000000081526001600160a01b0384811660048301529151919092169163f2fde38b91602480830192600092919082900301818387803b15801561067857600080fd5b505af115801561068c573d6000803e3d6000fd5b5050505050565b60008281526020819052604081206106ab9083610977565b90505b92915050565b60008281526020819052604081206106ab9083610983565b6106d9600061039e6108a1565b61072a576040805162461bcd60e51b815260206004820152601160248201527f4e6f7420616e2061646d696e20726f6c65000000000000000000000000000000604482015290519081900360640190fd5b600154604080517fa1beb37400000000000000000000000000000000000000000000000000000000815260ff86166004820190815260248201928352604482018590526001600160a01b039093169263a1beb374928792879287929091606401848480828437600081840152601f19601f820116905080830192505050945050505050600060405180830381600087803b1580156107c757600080fd5b505af11580156107db573d6000803e3d6000fd5b50505050505050565b600081565b60008181526020819052604081206106ae90610998565b6001546001600160a01b031681565b7f9f2df0fed2c77648de5860a4cc508cd0818c85b8b8a1ab4ceeef8d981c8956a681565b6000828152602081905260409020600201546108519061039e6108a1565b6105a95760405162461bcd60e51b8152600401808060200182810382526030815260200180610b9a6030913960400191505060405180910390fd5b60006106ab836001600160a01b0384166109a3565b3390565b60008281526020819052604090206108bd908261088c565b1561054e576108ca6108a1565b6001600160a01b0316816001600160a01b0316837f2f8788117e7eff1d82e926ec794901d17c78024a50270940304540a733656f0d60405160405180910390a45050565b600082815260208190526040902061092690826109ed565b1561054e576109336108a1565b6001600160a01b0316816001600160a01b0316837ff6391f5c32d9c69d2a47ea670b442974b53935d1edc7fd64eb21e047a839171b60405160405180910390a45050565b60006106ab8383610a02565b60006106ab836001600160a01b038416610a66565b60006106ae82610a7e565b60006109af8383610a66565b6109e5575081546001818101845560008481526020808220909301849055845484825282860190935260409020919091556106ae565b5060006106ae565b60006106ab836001600160a01b038416610a82565b81546000908210610a445760405162461bcd60e51b8152600401808060200182810382526022815260200180610b496022913960400191505060405180910390fd5b826000018281548110610a5357fe5b9060005260206000200154905092915050565b60009081526001919091016020526040902054151590565b5490565b60008181526001830160205260408120548015610b3e5783546000198083019190810190600090879083908110610ab557fe5b9060005260206000200154905080876000018481548110610ad257fe5b600091825260208083209091019290925582815260018981019092526040902090840190558654879080610b0257fe5b600190038181906000526020600020016000905590558660010160008781526020019081526020016000206000905560019450505050506106ae565b60009150506106ae56fe456e756d657261626c655365743a20696e646578206f7574206f6620626f756e6473416363657373436f6e74726f6c3a2073656e646572206d75737420626520616e2061646d696e20746f206772616e74416363657373436f6e74726f6c3a2073656e646572206d75737420626520616e2061646d696e20746f207265766f6b65416363657373436f6e74726f6c3a2063616e206f6e6c792072656e6f756e636520726f6c657320666f722073656c66a264697066735822122089e31026af038d0c4857d1ab1800d33bc0028ab64a65796fc2108099ae4d52f464736f6c634300060c0033",
  "linkReferences": {},
  "deployedLinkReferences": {}
}