{
  "_format": "hh-sol-artifact-1",
  "contractName": "ArcaneItemMintingStation",
  "sourceName": "src/ArcaneItemMintingStation.sol",
  "abi": [
    {
      "inputs": [
        {
          "internalType": "contract ArcaneItems",
          "name": "_arcaneItems",
          "type": "address"
        }
      ],
      "stateMutability": "nonpayable",
      "type": "constructor"
    },
    {
      "anonymous": false,
      "inputs": [
        {
          "indexed": true,
          "internalType": "bytes32",
          "name": "role",
          "type": "bytes32"
        },
        {
          "indexed": true,
          "internalType": "bytes32",
          "name": "previousAdminRole",
          "type": "bytes32"
        },
        {
          "indexed": true,
          "internalType": "bytes32",
          "name": "newAdminRole",
          "type": "bytes32"
        }
      ],
      "name": "RoleAdminChanged",
      "type": "event"
    },
    {
      "anonymous": false,
      "inputs": [
        {
          "indexed": true,
          "internalType": "bytes32",
          "name": "role",
          "type": "bytes32"
        },
        {
          "indexed": true,
          "internalType": "address",
          "name": "account",
          "type": "address"
        },
        {
          "indexed": true,
          "internalType": "address",
          "name": "sender",
          "type": "address"
        }
      ],
      "name": "RoleGranted",
      "type": "event"
    },
    {
      "anonymous": false,
      "inputs": [
        {
          "indexed": true,
          "internalType": "bytes32",
          "name": "role",
          "type": "bytes32"
        },
        {
          "indexed": true,
          "internalType": "address",
          "name": "account",
          "type": "address"
        },
        {
          "indexed": true,
          "internalType": "address",
          "name": "sender",
          "type": "address"
        }
      ],
      "name": "RoleRevoked",
      "type": "event"
    },
    {
      "inputs": [],
      "name": "DEFAULT_ADMIN_ROLE",
      "outputs": [
        {
          "internalType": "bytes32",
          "name": "",
          "type": "bytes32"
        }
      ],
      "stateMutability": "view",
      "type": "function"
    },
    {
      "inputs": [],
      "name": "MINTER_ROLE",
      "outputs": [
        {
          "internalType": "bytes32",
          "name": "",
          "type": "bytes32"
        }
      ],
      "stateMutability": "view",
      "type": "function"
    },
    {
      "inputs": [],
      "name": "arcaneItems",
      "outputs": [
        {
          "internalType": "contract ArcaneItems",
          "name": "",
          "type": "address"
        }
      ],
      "stateMutability": "view",
      "type": "function"
    },
    {
      "inputs": [
        {
          "internalType": "address",
          "name": "_newOwner",
          "type": "address"
        }
      ],
      "name": "changeOwnershipNFTContract",
      "outputs": [],
      "stateMutability": "nonpayable",
      "type": "function"
    },
    {
      "inputs": [
        {
          "internalType": "bytes32",
          "name": "role",
          "type": "bytes32"
        }
      ],
      "name": "getRoleAdmin",
      "outputs": [
        {
          "internalType": "bytes32",
          "name": "",
          "type": "bytes32"
        }
      ],
      "stateMutability": "view",
      "type": "function"
    },
    {
      "inputs": [
        {
          "internalType": "bytes32",
          "name": "role",
          "type": "bytes32"
        },
        {
          "internalType": "uint256",
          "name": "index",
          "type": "uint256"
        }
      ],
      "name": "getRoleMember",
      "outputs": [
        {
          "internalType": "address",
          "name": "",
          "type": "address"
        }
      ],
      "stateMutability": "view",
      "type": "function"
    },
    {
      "inputs": [
        {
          "internalType": "bytes32",
          "name": "role",
          "type": "bytes32"
        }
      ],
      "name": "getRoleMemberCount",
      "outputs": [
        {
          "internalType": "uint256",
          "name": "",
          "type": "uint256"
        }
      ],
      "stateMutability": "view",
      "type": "function"
    },
    {
      "inputs": [
        {
          "internalType": "bytes32",
          "name": "role",
          "type": "bytes32"
        },
        {
          "internalType": "address",
          "name": "account",
          "type": "address"
        }
      ],
      "name": "grantRole",
      "outputs": [],
      "stateMutability": "nonpayable",
      "type": "function"
    },
    {
      "inputs": [
        {
          "internalType": "bytes32",
          "name": "role",
          "type": "bytes32"
        },
        {
          "internalType": "address",
          "name": "account",
          "type": "address"
        }
      ],
      "name": "hasRole",
      "outputs": [
        {
          "internalType": "bool",
          "name": "",
          "type": "bool"
        }
      ],
      "stateMutability": "view",
      "type": "function"
    },
    {
      "inputs": [
        {
          "internalType": "address",
          "name": "_tokenReceiver",
          "type": "address"
        },
        {
          "internalType": "string",
          "name": "_tokenURI",
          "type": "string"
        },
        {
          "internalType": "uint16",
          "name": "_itemId",
          "type": "uint16"
        },
        {
          "internalType": "uint256",
          "name": "_tokenId",
          "type": "uint256"
        }
      ],
      "name": "mint",
      "outputs": [
        {
          "internalType": "uint256",
          "name": "",
          "type": "uint256"
        }
      ],
      "stateMutability": "nonpayable",
      "type": "function"
    },
    {
      "inputs": [
        {
          "internalType": "bytes32",
          "name": "role",
          "type": "bytes32"
        },
        {
          "internalType": "address",
          "name": "account",
          "type": "address"
        }
      ],
      "name": "renounceRole",
      "outputs": [],
      "stateMutability": "nonpayable",
      "type": "function"
    },
    {
      "inputs": [
        {
          "internalType": "bytes32",
          "name": "role",
          "type": "bytes32"
        },
        {
          "internalType": "address",
          "name": "account",
          "type": "address"
        }
      ],
      "name": "revokeRole",
      "outputs": [],
      "stateMutability": "nonpayable",
      "type": "function"
    },
    {
      "inputs": [
        {
          "internalType": "uint8",
          "name": "_itemId",
          "type": "uint8"
        },
        {
          "internalType": "string",
          "name": "_itemName",
          "type": "string"
        }
      ],
      "name": "setItemName",
      "outputs": [],
      "stateMutability": "nonpayable",
      "type": "function"
    }
  ],
  "bytecode": "0x60806040523480156200001157600080fd5b5060405162000dcd38038062000dcd833981810160405260208110156200003757600080fd5b5051600180546001600160a01b0319166001600160a01b0383161790556200006a60006200006462000071565b62000075565b5062000185565b3390565b62000081828262000085565b5050565b600082815260208181526040909120620000aa91839062000896620000fe821b17901c565b156200008157620000ba62000071565b6001600160a01b0316816001600160a01b0316837f2f8788117e7eff1d82e926ec794901d17c78024a50270940304540a733656f0d60405160405180910390a45050565b600062000115836001600160a01b0384166200011e565b90505b92915050565b60006200012c83836200016d565b620001645750815460018181018455600084815260208082209093018490558454848252828601909352604090209190915562000118565b50600062000118565b60009081526001919091016020526040902054151590565b610c3880620001956000396000f3fe608060405234801561001057600080fd5b50600436106100df5760003560e01c80639010d07c1161008c578063ca15c87311610066578063ca15c8731461029c578063cf050474146102b9578063d539139314610343578063d547741f1461034b576100df565b80639010d07c1461023157806391d1485414610254578063a217fddf14610294576100df565b806336568abe116100bd57806336568abe146101655780633bd15331146101915780637c4393261461020b576100df565b8063248a9ca3146100e45780632f2ff15d1461011357806331ca8a7d14610141575b600080fd5b610101600480360360208110156100fa57600080fd5b5035610377565b60408051918252519081900360200190f35b61013f6004803603604081101561012957600080fd5b50803590602001356001600160a01b031661038c565b005b6101496103f8565b604080516001600160a01b039092168252519081900360200190f35b61013f6004803603604081101561017b57600080fd5b50803590602001356001600160a01b0316610407565b61013f600480360360408110156101a757600080fd5b60ff82351691908101906040810160208201356401000000008111156101cc57600080fd5b8201836020820111156101de57600080fd5b8035906020019184600183028401116401000000008311171561020057600080fd5b509092509050610468565b61013f6004803603602081101561022157600080fd5b50356001600160a01b0316610580565b6101496004803603604081101561024757600080fd5b5080359060200135610660565b6102806004803603604081101561026a57600080fd5b50803590602001356001600160a01b0316610681565b604080519115158252519081900360200190f35b610101610699565b610101600480360360208110156102b257600080fd5b503561069e565b610101600480360360808110156102cf57600080fd5b6001600160a01b0382351691908101906040810160208201356401000000008111156102fa57600080fd5b82018360208201111561030c57600080fd5b8035906020019184600183028401116401000000008311171561032e57600080fd5b919350915061ffff81351690602001356106b5565b610101610819565b61013f6004803603604081101561036157600080fd5b50803590602001356001600160a01b031661083d565b60009081526020819052604090206002015490565b6000828152602081905260409020600201546103af906103aa6108ab565b610681565b6103ea5760405162461bcd60e51b815260040180806020018281038252602f815260200180610b75602f913960400191505060405180910390fd5b6103f482826108af565b5050565b6001546001600160a01b031681565b61040f6108ab565b6001600160a01b0316816001600160a01b03161461045e5760405162461bcd60e51b815260040180806020018281038252602f815260200180610bd4602f913960400191505060405180910390fd5b6103f48282610918565b61047560006103aa6108ab565b6104c6576040805162461bcd60e51b815260206004820152601160248201527f4e6f7420616e2061646d696e20726f6c65000000000000000000000000000000604482015290519081900360640190fd5b600154604080517fcf6efc6800000000000000000000000000000000000000000000000000000000815260ff86166004820190815260248201928352604482018590526001600160a01b039093169263cf6efc68928792879287929091606401848480828437600081840152601f19601f820116905080830192505050945050505050600060405180830381600087803b15801561056357600080fd5b505af1158015610577573d6000803e3d6000fd5b50505050505050565b61058d60006103aa6108ab565b6105de576040805162461bcd60e51b815260206004820152601160248201527f4e6f7420616e2061646d696e20726f6c65000000000000000000000000000000604482015290519081900360640190fd5b600154604080517ff2fde38b0000000000000000000000000000000000000000000000000000000081526001600160a01b0384811660048301529151919092169163f2fde38b91602480830192600092919082900301818387803b15801561064557600080fd5b505af1158015610659573d6000803e3d6000fd5b5050505050565b60008281526020819052604081206106789083610981565b90505b92915050565b6000828152602081905260408120610678908361098d565b600081565b600081815260208190526040812061067b906109a2565b60006106e37f9f2df0fed2c77648de5860a4cc508cd0818c85b8b8a1ab4ceeef8d981c8956a66103aa6108ab565b610734576040805162461bcd60e51b815260206004820152601260248201527f4e6f742061206d696e74696e6720726f6c650000000000000000000000000000604482015290519081900360640190fd5b6000600160009054906101000a90046001600160a01b03166001600160a01b031663cf05047488888888886040518663ffffffff1660e01b815260040180866001600160a01b03168152602001806020018461ffff1681526020018381526020018281038252868682818152602001925080828437600081840152601f19601f8201169050808301925050509650505050505050602060405180830381600087803b1580156107e257600080fd5b505af11580156107f6573d6000803e3d6000fd5b505050506040513d602081101561080c57600080fd5b5051979650505050505050565b7f9f2df0fed2c77648de5860a4cc508cd0818c85b8b8a1ab4ceeef8d981c8956a681565b60008281526020819052604090206002015461085b906103aa6108ab565b61045e5760405162461bcd60e51b8152600401808060200182810382526030815260200180610ba46030913960400191505060405180910390fd5b6000610678836001600160a01b0384166109ad565b3390565b60008281526020819052604090206108c79082610896565b156103f4576108d46108ab565b6001600160a01b0316816001600160a01b0316837f2f8788117e7eff1d82e926ec794901d17c78024a50270940304540a733656f0d60405160405180910390a45050565b600082815260208190526040902061093090826109f7565b156103f45761093d6108ab565b6001600160a01b0316816001600160a01b0316837ff6391f5c32d9c69d2a47ea670b442974b53935d1edc7fd64eb21e047a839171b60405160405180910390a45050565b60006106788383610a0c565b6000610678836001600160a01b038416610a70565b600061067b82610a88565b60006109b98383610a70565b6109ef5750815460018181018455600084815260208082209093018490558454848252828601909352604090209190915561067b565b50600061067b565b6000610678836001600160a01b038416610a8c565b81546000908210610a4e5760405162461bcd60e51b8152600401808060200182810382526022815260200180610b536022913960400191505060405180910390fd5b826000018281548110610a5d57fe5b9060005260206000200154905092915050565b60009081526001919091016020526040902054151590565b5490565b60008181526001830160205260408120548015610b485783546000198083019190810190600090879083908110610abf57fe5b9060005260206000200154905080876000018481548110610adc57fe5b600091825260208083209091019290925582815260018981019092526040902090840190558654879080610b0c57fe5b6001900381819060005260206000200160009055905586600101600087815260200190815260200160002060009055600194505050505061067b565b600091505061067b56fe456e756d657261626c655365743a20696e646578206f7574206f6620626f756e6473416363657373436f6e74726f6c3a2073656e646572206d75737420626520616e2061646d696e20746f206772616e74416363657373436f6e74726f6c3a2073656e646572206d75737420626520616e2061646d696e20746f207265766f6b65416363657373436f6e74726f6c3a2063616e206f6e6c792072656e6f756e636520726f6c657320666f722073656c66a2646970667358221220a47d0db372ead5ee8912a836ee900b80248b715af003d09fb3d7889508ab570664736f6c634300060c0033",
  "linkReferences": {},
  "deployedLinkReferences": {}
}