{
    "_format": "hh-sol-artifact-1",
    "contractName": "ArcaneTraderV1",
    "sourceName": "src/ArcaneTraderV1.sol",
    "abi": [
        {
            "inputs": [
                {
                    "internalType": "address",
                    "name": "_itemsAddress",
                    "type": "address"
                }
            ],
            "stateMutability": "nonpayable",
            "type": "constructor"
        },
        {
            "anonymous": false,
            "inputs": [
                {
                    "indexed": true,
                    "internalType": "address",
                    "name": "seller",
                    "type": "address"
                },
                {
                    "indexed": true,
                    "internalType": "address",
                    "name": "buyer",
                    "type": "address"
                },
                {
                    "indexed": false,
                    "internalType": "uint256",
                    "name": "tokenId",
                    "type": "uint256"
                },
                {
                    "indexed": false,
                    "internalType": "uint256",
                    "name": "price",
                    "type": "uint256"
                }
            ],
            "name": "Buy",
            "type": "event"
        },
        {
            "anonymous": false,
            "inputs": [
                {
                    "indexed": true,
                    "internalType": "address",
                    "name": "seller",
                    "type": "address"
                },
                {
                    "indexed": true,
                    "internalType": "address",
                    "name": "buyer",
                    "type": "address"
                },
                {
                    "indexed": false,
                    "internalType": "uint256",
                    "name": "tokenId",
                    "type": "uint256"
                }
            ],
            "name": "Delist",
            "type": "event"
        },
        {
            "anonymous": false,
            "inputs": [
                {
                    "indexed": true,
                    "internalType": "address",
                    "name": "seller",
                    "type": "address"
                },
                {
                    "indexed": true,
                    "internalType": "address",
                    "name": "buyer",
                    "type": "address"
                },
                {
                    "indexed": false,
                    "internalType": "uint256",
                    "name": "tokenId",
                    "type": "uint256"
                },
                {
                    "indexed": false,
                    "internalType": "uint256",
                    "name": "price",
                    "type": "uint256"
                }
            ],
            "name": "List",
            "type": "event"
        },
        {
            "anonymous": false,
            "inputs": [
                {
                    "indexed": true,
                    "internalType": "address",
                    "name": "user",
                    "type": "address"
                },
                {
                    "indexed": true,
                    "internalType": "address",
                    "name": "seller",
                    "type": "address"
                },
                {
                    "indexed": false,
                    "internalType": "uint256",
                    "name": "tokenId",
                    "type": "uint256"
                }
            ],
            "name": "Recover",
            "type": "event"
        },
        {
            "anonymous": false,
            "inputs": [
                {
                    "indexed": true,
                    "internalType": "bytes32",
                    "name": "role",
                    "type": "bytes32"
                },
                {
                    "indexed": true,
                    "internalType": "bytes32",
                    "name": "previousAdminRole",
                    "type": "bytes32"
                },
                {
                    "indexed": true,
                    "internalType": "bytes32",
                    "name": "newAdminRole",
                    "type": "bytes32"
                }
            ],
            "name": "RoleAdminChanged",
            "type": "event"
        },
        {
            "anonymous": false,
            "inputs": [
                {
                    "indexed": true,
                    "internalType": "bytes32",
                    "name": "role",
                    "type": "bytes32"
                },
                {
                    "indexed": true,
                    "internalType": "address",
                    "name": "account",
                    "type": "address"
                },
                {
                    "indexed": true,
                    "internalType": "address",
                    "name": "sender",
                    "type": "address"
                }
            ],
            "name": "RoleGranted",
            "type": "event"
        },
        {
            "anonymous": false,
            "inputs": [
                {
                    "indexed": true,
                    "internalType": "bytes32",
                    "name": "role",
                    "type": "bytes32"
                },
                {
                    "indexed": true,
                    "internalType": "address",
                    "name": "account",
                    "type": "address"
                },
                {
                    "indexed": true,
                    "internalType": "address",
                    "name": "sender",
                    "type": "address"
                }
            ],
            "name": "RoleRevoked",
            "type": "event"
        },
        {
            "anonymous": false,
            "inputs": [
                {
                    "indexed": true,
                    "internalType": "address",
                    "name": "seller",
                    "type": "address"
                },
                {
                    "indexed": true,
                    "internalType": "address",
                    "name": "buyer",
                    "type": "address"
                },
                {
                    "indexed": false,
                    "internalType": "uint256",
                    "name": "tokenId",
                    "type": "uint256"
                },
                {
                    "indexed": false,
                    "internalType": "uint256",
                    "name": "price",
                    "type": "uint256"
                }
            ],
            "name": "Update",
            "type": "event"
        },
        {
            "inputs": [],
            "name": "DEFAULT_ADMIN_ROLE",
            "outputs": [
                {
                    "internalType": "bytes32",
                    "name": "",
                    "type": "bytes32"
                }
            ],
            "stateMutability": "view",
            "type": "function"
        },
        {
            "inputs": [],
            "name": "NFT_ROLE",
            "outputs": [
                {
                    "internalType": "bytes32",
                    "name": "",
                    "type": "bytes32"
                }
            ],
            "stateMutability": "view",
            "type": "function"
        },
        {
            "inputs": [
                {
                    "internalType": "address payable",
                    "name": "_seller",
                    "type": "address"
                },
                {
                    "internalType": "uint256",
                    "name": "_tokenId",
                    "type": "uint256"
                }
            ],
            "name": "buy",
            "outputs": [],
            "stateMutability": "payable",
            "type": "function"
        },
        {
            "inputs": [
                {
                    "internalType": "uint256",
                    "name": "_tokenId",
                    "type": "uint256"
                }
            ],
            "name": "delist",
            "outputs": [],
            "stateMutability": "nonpayable",
            "type": "function"
        },
        {
            "inputs": [
                {
                    "internalType": "bytes32",
                    "name": "role",
                    "type": "bytes32"
                }
            ],
            "name": "getRoleAdmin",
            "outputs": [
                {
                    "internalType": "bytes32",
                    "name": "",
                    "type": "bytes32"
                }
            ],
            "stateMutability": "view",
            "type": "function"
        },
        {
            "inputs": [
                {
                    "internalType": "bytes32",
                    "name": "role",
                    "type": "bytes32"
                },
                {
                    "internalType": "uint256",
                    "name": "index",
                    "type": "uint256"
                }
            ],
            "name": "getRoleMember",
            "outputs": [
                {
                    "internalType": "address",
                    "name": "",
                    "type": "address"
                }
            ],
            "stateMutability": "view",
            "type": "function"
        },
        {
            "inputs": [
                {
                    "internalType": "bytes32",
                    "name": "role",
                    "type": "bytes32"
                }
            ],
            "name": "getRoleMemberCount",
            "outputs": [
                {
                    "internalType": "uint256",
                    "name": "",
                    "type": "uint256"
                }
            ],
            "stateMutability": "view",
            "type": "function"
        },
        {
            "inputs": [
                {
                    "internalType": "bytes32",
                    "name": "role",
                    "type": "bytes32"
                },
                {
                    "internalType": "address",
                    "name": "account",
                    "type": "address"
                }
            ],
            "name": "grantRole",
            "outputs": [],
            "stateMutability": "nonpayable",
            "type": "function"
        },
        {
            "inputs": [
                {
                    "internalType": "bytes32",
                    "name": "role",
                    "type": "bytes32"
                },
                {
                    "internalType": "address",
                    "name": "account",
                    "type": "address"
                }
            ],
            "name": "hasRole",
            "outputs": [
                {
                    "internalType": "bool",
                    "name": "",
                    "type": "bool"
                }
            ],
            "stateMutability": "view",
            "type": "function"
        },
        {
            "inputs": [],
            "name": "itemsAddress",
            "outputs": [
                {
                    "internalType": "address",
                    "name": "",
                    "type": "address"
                }
            ],
            "stateMutability": "view",
            "type": "function"
        },
        {
            "inputs": [
                {
                    "internalType": "address",
                    "name": "_buyer",
                    "type": "address"
                },
                {
                    "internalType": "uint256",
                    "name": "_tokenId",
                    "type": "uint256"
                },
                {
                    "internalType": "uint256",
                    "name": "_price",
                    "type": "uint256"
                }
            ],
            "name": "list",
            "outputs": [],
            "stateMutability": "nonpayable",
            "type": "function"
        },
        {
            "inputs": [
                {
                    "internalType": "address",
                    "name": "",
                    "type": "address"
                },
                {
                    "internalType": "address",
                    "name": "",
                    "type": "address"
                },
                {
                    "internalType": "uint256",
                    "name": "",
                    "type": "uint256"
                },
                {
                    "internalType": "bytes",
                    "name": "",
                    "type": "bytes"
                }
            ],
            "name": "onERC721Received",
            "outputs": [
                {
                    "internalType": "bytes4",
                    "name": "",
                    "type": "bytes4"
                }
            ],
            "stateMutability": "nonpayable",
            "type": "function"
        },
        {
            "inputs": [
                {
                    "internalType": "address",
                    "name": "_seller",
                    "type": "address"
                },
                {
                    "internalType": "uint256",
                    "name": "_tokenId",
                    "type": "uint256"
                }
            ],
            "name": "recover",
            "outputs": [],
            "stateMutability": "nonpayable",
            "type": "function"
        },
        {
            "inputs": [
                {
                    "internalType": "bytes32",
                    "name": "role",
                    "type": "bytes32"
                },
                {
                    "internalType": "address",
                    "name": "account",
                    "type": "address"
                }
            ],
            "name": "renounceRole",
            "outputs": [],
            "stateMutability": "nonpayable",
            "type": "function"
        },
        {
            "inputs": [
                {
                    "internalType": "bytes32",
                    "name": "role",
                    "type": "bytes32"
                },
                {
                    "internalType": "address",
                    "name": "account",
                    "type": "address"
                }
            ],
            "name": "revokeRole",
            "outputs": [],
            "stateMutability": "nonpayable",
            "type": "function"
        },
        {
            "inputs": [
                {
                    "internalType": "address",
                    "name": "",
                    "type": "address"
                },
                {
                    "internalType": "uint256",
                    "name": "",
                    "type": "uint256"
                }
            ],
            "name": "tradeBuyer",
            "outputs": [
                {
                    "internalType": "address",
                    "name": "",
                    "type": "address"
                }
            ],
            "stateMutability": "view",
            "type": "function"
        },
        {
            "inputs": [
                {
                    "internalType": "address",
                    "name": "",
                    "type": "address"
                },
                {
                    "internalType": "uint256",
                    "name": "",
                    "type": "uint256"
                }
            ],
            "name": "tradePrice",
            "outputs": [
                {
                    "internalType": "uint256",
                    "name": "",
                    "type": "uint256"
                }
            ],
            "stateMutability": "view",
            "type": "function"
        },
        {
            "inputs": [
                {
                    "internalType": "address",
                    "name": "_buyer",
                    "type": "address"
                },
                {
                    "internalType": "uint256",
                    "name": "_tokenId",
                    "type": "uint256"
                },
                {
                    "internalType": "uint256",
                    "name": "_price",
                    "type": "uint256"
                }
            ],
            "name": "update",
            "outputs": [],
            "stateMutability": "nonpayable",
            "type": "function"
        }
    ],
    "bytecode": "0x60806040523480156200001157600080fd5b50604051620016e8380380620016e8833981016040819052620000349162000180565b600180546001600160a01b0319166001600160a01b0383161790556200006560006200005f6200006c565b62000070565b50620001b0565b3390565b6200007c828262000080565b5050565b600082815260208181526040909120620000a591839062000d34620000f9821b17901c565b156200007c57620000b56200006c565b6001600160a01b0316816001600160a01b0316837f2f8788117e7eff1d82e926ec794901d17c78024a50270940304540a733656f0d60405160405180910390a45050565b600062000110836001600160a01b03841662000119565b90505b92915050565b600062000127838362000168565b6200015f5750815460018181018455600084815260208082209093018490558454848252828601909352604090209190915562000113565b50600062000113565b60009081526001919091016020526040902054151590565b60006020828403121562000192578081fd5b81516001600160a01b0381168114620001a9578182fd5b9392505050565b61152880620001c06000396000f3fe6080604052600436106101295760003560e01c8063a217fddf116100a5578063d09b6d4311610074578063dda342bb11610059578063dda342bb1461032a578063f074258e1461034a578063f684f33c1461036a57610129565b8063d09b6d43146102ea578063d547741f1461030a57610129565b8063a217fddf1461028d578063c1f57bdb146102a2578063ca15c873146102b7578063cce7ec13146102d757610129565b80635705ae43116100fc5780637eacaa66116100e15780637eacaa66146102205780639010d07c1461024057806391d148541461026057610129565b80635705ae43146101d35780635c8d3e1d146101f357610129565b8063150b7a021461012e578063248a9ca3146101645780632f2ff15d1461019157806336568abe146101b3575b600080fd5b34801561013a57600080fd5b5061014e61014936600461101f565b61037f565b60405161015b91906111e1565b60405180910390f35b34801561017057600080fd5b5061018461017f36600461112d565b6103a8565b60405161015b91906111d8565b34801561019d57600080fd5b506101b16101ac366004611145565b6103bd565b005b3480156101bf57600080fd5b506101b16101ce366004611145565b61040e565b3480156101df57600080fd5b506101b16101ee3660046110e7565b610450565b3480156101ff57600080fd5b5061021361020e3660046110e7565b6105bc565b60405161015b9190611195565b34801561022c57600080fd5b5061018461023b3660046110e7565b6105e2565b34801561024c57600080fd5b5061021361025b366004611174565b6105ff565b34801561026c57600080fd5b5061028061027b366004611145565b610620565b60405161015b91906111cd565b34801561029957600080fd5b50610184610638565b3480156102ae57600080fd5b5061021361063d565b3480156102c357600080fd5b506101846102d236600461112d565b61064c565b6101b16102e5366004610ff4565b610663565b3480156102f657600080fd5b506101b16103053660046110f9565b610835565b34801561031657600080fd5b506101b1610325366004611145565b610931565b34801561033657600080fd5b506101b16103453660046110f9565b61096b565b34801561035657600080fd5b506101b16103653660046110e7565b610bda565b34801561037657600080fd5b50610184610d10565b7f150b7a0200000000000000000000000000000000000000000000000000000000949350505050565b60009081526020819052604090206002015490565b6000828152602081905260409020600201546103db9061027b610d49565b6104005760405162461bcd60e51b81526004016103f79061126b565b60405180910390fd5b61040a8282610d4d565b5050565b610416610d49565b6001600160a01b0316816001600160a01b0316146104465760405162461bcd60e51b81526004016103f79061146f565b61040a8282610db6565b61045d600061027b610d49565b6104795760405162461bcd60e51b81526004016103f7906113ca565b6001600160a01b03828116600090815260026020908152604080832085845290915290205416156104bc5760405162461bcd60e51b81526004016103f790611438565b6001600160a01b038083166000818152600260209081526040808320868452825280832080546001600160a01b03191690559282526003815282822085835290529081205560015416806342842e0e30610514610d49565b856040518463ffffffff1660e01b8152600401610533939291906111a9565b600060405180830381600087803b15801561054d57600080fd5b505af1158015610561573d6000803e3d6000fd5b50505050826001600160a01b0316610577610d49565b6001600160a01b03167ff6891c84a6c6af32a6d052172a8acc4c631b1d5057ffa2bc1da268b6938ea2da846040516105af91906111d8565b60405180910390a3505050565b60026020908152600092835260408084209091529082529020546001600160a01b031681565b600360209081526000928352604080842090915290825290205481565b60008281526020819052604081206106179083610e1f565b90505b92915050565b60008281526020819052604081206106179083610e2b565b600081565b6001546001600160a01b031681565b600081815260208190526040812061061a90610e40565b6001600160a01b038083166000818152600260209081526040808320868452825280832054938352600382528083208684529091529020543492919091169061dead8214806106ca57506106b5610d49565b6001600160a01b0316826001600160a01b0316145b6106e65760405162461bcd60e51b81526004016103f7906112c8565b808310156107065760405162461bcd60e51b81526004016103f790611393565b6001600160a01b038086166000818152600260209081526040808320898452825280832080546001600160a01b0319169055928252600381528282208883529052818120556001549051632142170760e11b815291169081906342842e0e9061077790309087908a906004016111a9565b600060405180830381600087803b15801561079157600080fd5b505af11580156107a5573d6000803e3d6000fd5b50506040516001600160a01b03891692503480156108fc029250906000818181858888f193505050501580156107df573d6000803e3d6000fd5b50826001600160a01b0316866001600160a01b03167f89f5adc174562e07c9c9b1cae7109bbecb21cf9d1b2847e550042b8653c54a0e87856040516108259291906114cc565b60405180910390a3505050505050565b600061083f610d49565b6001600160a01b03808216600090815260026020908152604080832088845290915290205491925016156108855760405162461bcd60e51b81526004016103f790611438565b6001600160a01b0384161561089a578361089e565b61dead5b6001600160a01b038281166000818152600260209081526040808320898452825280832080546001600160a01b03191696861696909617909555828252600381528482208883529052839020859055915190861691907fb7f0ca7cd5b24651672216886135b99ff40342bcf549009a4c6fc74f059fb9a09061092390879087906114cc565b60405180910390a350505050565b60008281526020819052604090206002015461094f9061027b610d49565b6104465760405162461bcd60e51b81526004016103f790611336565b6000610975610d49565b6001546040517f6352211e0000000000000000000000000000000000000000000000000000000081529192506001600160a01b0316908190636352211e906109c19087906004016111d8565b60206040518083038186803b1580156109d957600080fd5b505afa1580156109ed573d6000803e3d6000fd5b505050506040513d601f19601f82011682018060405250810190610a119190610fd1565b6001600160a01b0316826001600160a01b031614610a415760405162461bcd60e51b81526004016103f790611401565b6001600160a01b03828116600090815260026020908152604080832088845290915290205416610a835760405162461bcd60e51b81526004016103f7906112ff565b6001600160a01b0382166000908152600360209081526040808320878452909152902054610ac35760405162461bcd60e51b81526004016103f7906112ff565b6001600160a01b03851615610ad85784610adc565b61dead5b6001600160a01b0383811660008181526002602090815260408083208a8452825280832080546001600160a01b03191696861696909617909555918152600382528381208882529091528290208590559051632142170760e11b8152908216906342842e0e90610b54908590309089906004016111a9565b600060405180830381600087803b158015610b6e57600080fd5b505af1158015610b82573d6000803e3d6000fd5b50505050846001600160a01b0316826001600160a01b03167fedbdf022944a3291f4b30148903a84720506f48e10478ec5812e5caf30e1fab08686604051610bcb9291906114cc565b60405180910390a35050505050565b6000610be4610d49565b6001600160a01b0380821660009081526002602090815260408083208784529091529020549192501615610c2a5760405162461bcd60e51b81526004016103f790611438565b6001600160a01b038082166000818152600260209081526040808320878452825280832080546001600160a01b0319169055928252600381528282208683529052818120556001549051632142170760e11b815291169081906342842e0e90610c9b903090869088906004016111a9565b600060405180830381600087803b158015610cb557600080fd5b505af1158015610cc9573d6000803e3d6000fd5b50505050836001600160a01b0316826001600160a01b03167f1b54b63a4f30c4b17093de03db83e3672ed626b964b08e4ee12434a84750571c8560405161092391906111d8565b7f8736816fdbcc15d6cc3f6dcf60e42b0ef33eb02281d312c807a38b4ad09190c081565b6000610617836001600160a01b038416610e4b565b3390565b6000828152602081905260409020610d659082610d34565b1561040a57610d72610d49565b6001600160a01b0316816001600160a01b0316837f2f8788117e7eff1d82e926ec794901d17c78024a50270940304540a733656f0d60405160405180910390a45050565b6000828152602081905260409020610dce9082610e95565b1561040a57610ddb610d49565b6001600160a01b0316816001600160a01b0316837ff6391f5c32d9c69d2a47ea670b442974b53935d1edc7fd64eb21e047a839171b60405160405180910390a45050565b60006106178383610eaa565b6000610617836001600160a01b038416610eef565b600061061a82610f07565b6000610e578383610eef565b610e8d5750815460018181018455600084815260208082209093018490558454848252828601909352604090209190915561061a565b50600061061a565b6000610617836001600160a01b038416610f0b565b81546000908210610ecd5760405162461bcd60e51b81526004016103f79061120e565b826000018281548110610edc57fe5b9060005260206000200154905092915050565b60009081526001919091016020526040902054151590565b5490565b60008181526001830160205260408120548015610fc75783546000198083019190810190600090879083908110610f3e57fe5b9060005260206000200154905080876000018481548110610f5b57fe5b600091825260208083209091019290925582815260018981019092526040902090840190558654879080610f8b57fe5b6001900381819060005260206000200160009055905586600101600087815260200190815260200160002060009055600194505050505061061a565b600091505061061a565b600060208284031215610fe2578081fd5b8151610fed816114da565b9392505050565b60008060408385031215611006578081fd5b8235611011816114da565b946020939093013593505050565b60008060008060808587031215611034578182fd5b843561103f816114da565b9350602085810135611050816114da565b935060408601359250606086013567ffffffffffffffff80821115611073578384fd5b818801915088601f830112611086578384fd5b813581811115611094578485fd5b604051601f8201601f19168101850183811182821017156110b3578687fd5b60405281815283820185018b10156110c9578586fd5b81858501868301379081019093019390935250939692955090935050565b60008060408385031215611006578182fd5b60008060006060848603121561110d578283fd5b8335611118816114da565b95602085013595506040909401359392505050565b60006020828403121561113e578081fd5b5035919050565b60008060408385031215611157578182fd5b823591506020830135611169816114da565b809150509250929050565b60008060408385031215611186578182fd5b50508035926020909101359150565b6001600160a01b0391909116815260200190565b6001600160a01b039384168152919092166020820152604081019190915260600190565b901515815260200190565b90815260200190565b7fffffffff0000000000000000000000000000000000000000000000000000000091909116815260200190565b60208082526022908201527f456e756d657261626c655365743a20696e646578206f7574206f6620626f756e60408201527f6473000000000000000000000000000000000000000000000000000000000000606082015260800190565b6020808252602f908201527f416363657373436f6e74726f6c3a2073656e646572206d75737420626520616e60408201527f2061646d696e20746f206772616e740000000000000000000000000000000000606082015260800190565b60208082526011908201527f4e6f7420612076616c6964206275796572000000000000000000000000000000604082015260600190565b6020808252600c908201527f5472616465206578697374730000000000000000000000000000000000000000604082015260600190565b60208082526030908201527f416363657373436f6e74726f6c3a2073656e646572206d75737420626520616e60408201527f2061646d696e20746f207265766f6b6500000000000000000000000000000000606082015260800190565b6020808252600a908201527f4e6f7420656e6f75676800000000000000000000000000000000000000000000604082015260600190565b60208082526012908201527f4e6f7420746865206d61696e2061646d696e0000000000000000000000000000604082015260600190565b6020808252601b908201527f4f6e6c79204e4654206f776e65722063616e207472616e736665720000000000604082015260600190565b60208082526012908201527f547261646520646f65736e742065786973740000000000000000000000000000604082015260600190565b6020808252602f908201527f416363657373436f6e74726f6c3a2063616e206f6e6c792072656e6f756e636560408201527f20726f6c657320666f722073656c660000000000000000000000000000000000606082015260800190565b918252602082015260400190565b6001600160a01b03811681146114ef57600080fd5b5056fea2646970667358221220d6189829944616406745be896f95af77625c47addb9decb0c95a92eed299f70664736f6c634300060c0033",
    "linkReferences": {},
    "deployedLinkReferences": {}
}